{"contracts/MungMarket.sol":{"MungMarket":{"abi":[{"inputs":[{"internalType":"address","name":"mungToken_","type":"address"},{"internalType":"address","name":"mungNFT_","type":"address"}],"stateMutability":"nonpayable","type":"constructor"},{"inputs":[],"name":"MungMarket__AlreadyListed","type":"error"},{"inputs":[],"name":"MungMarket__InvalidParams","type":"error"},{"inputs":[],"name":"MungMarket__InvalidPrice","type":"error"},{"inputs":[],"name":"MungMarket__NotApproved","type":"error"},{"inputs":[],"name":"MungMarket__NotListed","type":"error"},{"inputs":[],"name":"MungMarket__PermissionDenied","type":"error"},{"anonymous":false,"inputs":[{"indexed":true,"internalType":"uint256","name":"tokenId","type":"uint256"},{"indexed":false,"internalType":"uint256","name":"price","type":"uint256"},{"indexed":true,"internalType":"address","name":"seller","type":"address"},{"indexed":true,"internalType":"address","name":"buyer","type":"address"}],"name":"Buy","type":"event"},{"anonymous":false,"inputs":[{"indexed":true,"internalType":"uint256","name":"tokenId","type":"uint256"}],"name":"DeList","type":"event"},{"anonymous":false,"inputs":[{"indexed":true,"internalType":"uint256","name":"tokenId","type":"uint256"},{"indexed":false,"internalType":"uint256","name":"price","type":"uint256"},{"indexed":true,"internalType":"address","name":"seller","type":"address"}],"name":"List","type":"event"},{"inputs":[{"internalType":"uint256","name":"tokenId","type":"uint256"},{"internalType":"uint256","name":"listIndex","type":"uint256"}],"name":"buy","outputs":[],"stateMutability":"nonpayable","type":"function"},{"inputs":[{"internalType":"uint256","name":"listIndex","type":"uint256"}],"name":"deList","outputs":[],"stateMutability":"nonpayable","type":"function"},{"inputs":[{"internalType":"uint256","name":"tokenId","type":"uint256"}],"name":"isListed","outputs":[{"internalType":"bool","name":"","type":"bool"}],"stateMutability":"view","type":"function"},{"inputs":[{"internalType":"uint256","name":"","type":"uint256"}],"name":"itemPrices","outputs":[{"internalType":"uint256","name":"","type":"uint256"}],"stateMutability":"view","type":"function"},{"inputs":[{"internalType":"uint256","name":"tokenId","type":"uint256"},{"internalType":"uint256","name":"price","type":"uint256"}],"name":"list","outputs":[],"stateMutability":"nonpayable","type":"function"},{"inputs":[],"name":"listCount","outputs":[{"internalType":"uint256","name":"","type":"uint256"}],"stateMutability":"view","type":"function"},{"inputs":[{"internalType":"uint256","name":"","type":"uint256"}],"name":"listedItems","outputs":[{"internalType":"uint256","name":"","type":"uint256"}],"stateMutability":"view","type":"function"},{"inputs":[],"name":"mungNFT","outputs":[{"internalType":"contract IERC721","name":"","type":"address"}],"stateMutability":"view","type":"function"},{"inputs":[],"name":"mungToken","outputs":[{"internalType":"contract IERC20","name":"","type":"address"}],"stateMutability":"view","type":"function"}],"evm":{"bytecode":{"linkReferences":{},"object":"608060405234801561001057600080fd5b50604051610c93380380610c9383398101604081905261002f9161007c565b600080546001600160a01b039384166001600160a01b031991821617909155600180549290931691161790556100af565b80516001600160a01b038116811461007757600080fd5b919050565b6000806040838503121561008f57600080fd5b61009883610060565b91506100a660208401610060565b90509250929050565b610bd5806100be6000396000f3fe608060405234801561001057600080fd5b50600436106100a35760003560e01c80637985a0af11610076578063d23470611161005b578063d23470611461016c578063d6febde81461017f578063fcce48831461019257600080fd5b80637985a0af1461012c578063bf91ad9e1461014c57600080fd5b80631b68d10d146100a857806343be2d03146100bf57806350fd7367146100d4578063765b1048146100e7575b600080fd5b6003545b6040519081526020015b60405180910390f35b6100d26100cd366004610a67565b6101c4565b005b6100d26100e2366004610a80565b610387565b6001546101079073ffffffffffffffffffffffffffffffffffffffff1681565b60405173ffffffffffffffffffffffffffffffffffffffff90911681526020016100b6565b6000546101079073ffffffffffffffffffffffffffffffffffffffff1681565b6100ac61015a366004610a67565b60026020526000908152604090205481565b6100ac61017a366004610a67565b61064c565b6100d261018d366004610a80565b61066d565b6101b46101a0366004610a67565b600090815260026020526040902054151590565b60405190151581526020016100b6565b60035481106101ff576040517f724b3f3600000000000000000000000000000000000000000000000000000000815260040160405180910390fd5b60006003828154811061021457610214610aa2565b9060005260206000200154905061023981600090815260026020526040902054151590565b61026f576040517fa4a00ac000000000000000000000000000000000000000000000000000000000815260040160405180910390fd5b6001546040517f6352211e00000000000000000000000000000000000000000000000000000000815260048101839052339173ffffffffffffffffffffffffffffffffffffffff1690636352211e90602401602060405180830381865afa1580156102de573d6000803e3d6000fd5b505050506040513d601f19601f820116820180604052508101906103029190610ad1565b73ffffffffffffffffffffffffffffffffffffffff161461034f576040517ffe09c7c100000000000000000000000000000000000000000000000000000000815260040160405180910390fd5b6103588261099d565b60405181907fe41dbb904a61ac874fd8e5e06b2940187c26198d4623b35ac9c17e3380a41ab890600090a25050565b806000036103c1576040517f8587962c00000000000000000000000000000000000000000000000000000000815260040160405180910390fd5b6001546040517f6352211e00000000000000000000000000000000000000000000000000000000815260048101849052339173ffffffffffffffffffffffffffffffffffffffff1690636352211e90602401602060405180830381865afa158015610430573d6000803e3d6000fd5b505050506040513d601f19601f820116820180604052508101906104549190610ad1565b73ffffffffffffffffffffffffffffffffffffffff16146104a1576040517ffe09c7c100000000000000000000000000000000000000000000000000000000815260040160405180910390fd5b6001546040517f081812fc00000000000000000000000000000000000000000000000000000000815260048101849052309173ffffffffffffffffffffffffffffffffffffffff169063081812fc90602401602060405180830381865afa158015610510573d6000803e3d6000fd5b505050506040513d601f19601f820116820180604052508101906105349190610ad1565b73ffffffffffffffffffffffffffffffffffffffff1614610581576040517f285c02fa00000000000000000000000000000000000000000000000000000000815260040160405180910390fd5b600082815260026020526040902054156105c7576040517f0ba1b06c00000000000000000000000000000000000000000000000000000000815260040160405180910390fd5b6000828152600260205260408082208390556003805460018101825592527fc2575a0e9e593c00f959f8c92f12db2869c3395a3b0502d05e2516446f71f85b90910183905551339083907fd9b13b7a400d0be3162deb8753aab49043593573ba6cd10369cd9a1ea5c0d214906106409085815260200190565b60405180910390a35050565b6003818154811061065c57600080fd5b600091825260209091200154905081565b60035481106106a8576040517f724b3f3600000000000000000000000000000000000000000000000000000000815260040160405180910390fd5b81600382815481106106bc576106bc610aa2565b9060005260206000200154146106fe576040517f724b3f3600000000000000000000000000000000000000000000000000000000815260040160405180910390fd5b600082815260026020526040902054610743576040517fa4a00ac000000000000000000000000000000000000000000000000000000000815260040160405180910390fd5b6001546040517f6352211e0000000000000000000000000000000000000000000000000000000081526004810184905260009173ffffffffffffffffffffffffffffffffffffffff1690636352211e90602401602060405180830381865afa1580156107b3573d6000803e3d6000fd5b505050506040513d601f19601f820116820180604052508101906107d79190610ad1565b60008481526002602052604090205490915033906107f48461099d565b6000546040517f23b872dd00000000000000000000000000000000000000000000000000000000815273ffffffffffffffffffffffffffffffffffffffff8481166004830152858116602483015260448201849052909116906323b872dd906064016020604051808303816000875af1158015610875573d6000803e3d6000fd5b505050506040513d601f19601f820116820180604052508101906108999190610b0e565b506001546040517f23b872dd00000000000000000000000000000000000000000000000000000000815273ffffffffffffffffffffffffffffffffffffffff8581166004830152848116602483015260448201889052909116906323b872dd90606401600060405180830381600087803b15801561091657600080fd5b505af115801561092a573d6000803e3d6000fd5b505050508173ffffffffffffffffffffffffffffffffffffffff168373ffffffffffffffffffffffffffffffffffffffff16867f73ee6083753970c82cf2d93ff7bb0432e00e0155c4096741ea134c74f67eb02b8460405161098e91815260200190565b60405180910390a45050505050565b6000600382815481106109b2576109b2610aa2565b90600052602060002001549050600360016003805490506109d39190610b30565b815481106109e3576109e3610aa2565b906000526020600020015460038381548110610a0157610a01610aa2565b6000918252602090912001556003805480610a1e57610a1e610b70565b6000828152602080822083017fffffffffffffffffffffffffffffffffffffffffffffffffffffffffffffffff9081018390559092019092559181526002909152604081205550565b600060208284031215610a7957600080fd5b5035919050565b60008060408385031215610a9357600080fd5b50508035926020909101359150565b7f4e487b7100000000000000000000000000000000000000000000000000000000600052603260045260246000fd5b600060208284031215610ae357600080fd5b815173ffffffffffffffffffffffffffffffffffffffff81168114610b0757600080fd5b9392505050565b600060208284031215610b2057600080fd5b81518015158114610b0757600080fd5b81810381811115610b6a577f4e487b7100000000000000000000000000000000000000000000000000000000600052601160045260246000fd5b92915050565b7f4e487b7100000000000000000000000000000000000000000000000000000000600052603160045260246000fdfea26469706673582212207376d8cb6fe89272d85636145b86770d38df1841b1a8b51047276699b595a27364736f6c63430008120033","opcodes":"PUSH1 0x80 PUSH1 0x40 MSTORE CALLVALUE DUP1 ISZERO PUSH2 0x10 JUMPI PUSH1 0x0 DUP1 REVERT JUMPDEST POP PUSH1 0x40 MLOAD PUSH2 0xC93 CODESIZE SUB DUP1 PUSH2 0xC93 DUP4 CODECOPY DUP2 ADD PUSH1 0x40 DUP2 SWAP1 MSTORE PUSH2 0x2F SWAP2 PUSH2 0x7C JUMP JUMPDEST PUSH1 0x0 DUP1 SLOAD PUSH1 0x1 PUSH1 0x1 PUSH1 0xA0 SHL SUB SWAP4 DUP5 AND PUSH1 0x1 PUSH1 0x1 PUSH1 0xA0 SHL SUB NOT SWAP2 DUP3 AND OR SWAP1 SWAP2 SSTORE PUSH1 0x1 DUP1 SLOAD SWAP3 SWAP1 SWAP4 AND SWAP2 AND OR SWAP1 SSTORE PUSH2 0xAF JUMP JUMPDEST DUP1 MLOAD PUSH1 0x1 PUSH1 0x1 PUSH1 0xA0 SHL SUB DUP2 AND DUP2 EQ PUSH2 0x77 JUMPI PUSH1 0x0 DUP1 REVERT JUMPDEST SWAP2 SWAP1 POP JUMP JUMPDEST PUSH1 0x0 DUP1 PUSH1 0x40 DUP4 DUP6 SUB SLT ISZERO PUSH2 0x8F JUMPI PUSH1 0x0 DUP1 REVERT JUMPDEST PUSH2 0x98 DUP4 PUSH2 0x60 JUMP JUMPDEST SWAP2 POP PUSH2 0xA6 PUSH1 0x20 DUP5 ADD PUSH2 0x60 JUMP JUMPDEST SWAP1 POP SWAP3 POP SWAP3 SWAP1 POP JUMP JUMPDEST PUSH2 0xBD5 DUP1 PUSH2 0xBE PUSH1 0x0 CODECOPY PUSH1 0x0 RETURN INVALID PUSH1 0x80 PUSH1 0x40 MSTORE CALLVALUE DUP1 ISZERO PUSH2 0x10 JUMPI PUSH1 0x0 DUP1 REVERT JUMPDEST POP PUSH1 0x4 CALLDATASIZE LT PUSH2 0xA3 JUMPI PUSH1 0x0 CALLDATALOAD PUSH1 0xE0 SHR DUP1 PUSH4 0x7985A0AF GT PUSH2 0x76 JUMPI DUP1 PUSH4 0xD2347061 GT PUSH2 0x5B JUMPI DUP1 PUSH4 0xD2347061 EQ PUSH2 0x16C JUMPI DUP1 PUSH4 0xD6FEBDE8 EQ PUSH2 0x17F JUMPI DUP1 PUSH4 0xFCCE4883 EQ PUSH2 0x192 JUMPI PUSH1 0x0 DUP1 REVERT JUMPDEST DUP1 PUSH4 0x7985A0AF EQ PUSH2 0x12C JUMPI DUP1 PUSH4 0xBF91AD9E EQ PUSH2 0x14C JUMPI PUSH1 0x0 DUP1 REVERT JUMPDEST DUP1 PUSH4 0x1B68D10D EQ PUSH2 0xA8 JUMPI DUP1 PUSH4 0x43BE2D03 EQ PUSH2 0xBF JUMPI DUP1 PUSH4 0x50FD7367 EQ PUSH2 0xD4 JUMPI DUP1 PUSH4 0x765B1048 EQ PUSH2 0xE7 JUMPI JUMPDEST PUSH1 0x0 DUP1 REVERT JUMPDEST PUSH1 0x3 SLOAD JUMPDEST PUSH1 0x40 MLOAD SWAP1 DUP2 MSTORE PUSH1 0x20 ADD JUMPDEST PUSH1 0x40 MLOAD DUP1 SWAP2 SUB SWAP1 RETURN JUMPDEST PUSH2 0xD2 PUSH2 0xCD CALLDATASIZE PUSH1 0x4 PUSH2 0xA67 JUMP JUMPDEST PUSH2 0x1C4 JUMP JUMPDEST STOP JUMPDEST PUSH2 0xD2 PUSH2 0xE2 CALLDATASIZE PUSH1 0x4 PUSH2 0xA80 JUMP JUMPDEST PUSH2 0x387 JUMP JUMPDEST PUSH1 0x1 SLOAD PUSH2 0x107 SWAP1 PUSH20 0xFFFFFFFFFFFFFFFFFFFFFFFFFFFFFFFFFFFFFFFF AND DUP2 JUMP JUMPDEST PUSH1 0x40 MLOAD PUSH20 0xFFFFFFFFFFFFFFFFFFFFFFFFFFFFFFFFFFFFFFFF SWAP1 SWAP2 AND DUP2 MSTORE PUSH1 0x20 ADD PUSH2 0xB6 JUMP JUMPDEST PUSH1 0x0 SLOAD PUSH2 0x107 SWAP1 PUSH20 0xFFFFFFFFFFFFFFFFFFFFFFFFFFFFFFFFFFFFFFFF AND DUP2 JUMP JUMPDEST PUSH2 0xAC PUSH2 0x15A CALLDATASIZE PUSH1 0x4 PUSH2 0xA67 JUMP JUMPDEST PUSH1 0x2 PUSH1 0x20 MSTORE PUSH1 0x0 SWAP1 DUP2 MSTORE PUSH1 0x40 SWAP1 KECCAK256 SLOAD DUP2 JUMP JUMPDEST PUSH2 0xAC PUSH2 0x17A CALLDATASIZE PUSH1 0x4 PUSH2 0xA67 JUMP JUMPDEST PUSH2 0x64C JUMP JUMPDEST PUSH2 0xD2 PUSH2 0x18D CALLDATASIZE PUSH1 0x4 PUSH2 0xA80 JUMP JUMPDEST PUSH2 0x66D JUMP JUMPDEST PUSH2 0x1B4 PUSH2 0x1A0 CALLDATASIZE PUSH1 0x4 PUSH2 0xA67 JUMP JUMPDEST PUSH1 0x0 SWAP1 DUP2 MSTORE PUSH1 0x2 PUSH1 0x20 MSTORE PUSH1 0x40 SWAP1 KECCAK256 SLOAD ISZERO ISZERO SWAP1 JUMP JUMPDEST PUSH1 0x40 MLOAD SWAP1 ISZERO ISZERO DUP2 MSTORE PUSH1 0x20 ADD PUSH2 0xB6 JUMP JUMPDEST PUSH1 0x3 SLOAD DUP2 LT PUSH2 0x1FF JUMPI PUSH1 0x40 MLOAD PUSH32 0x724B3F3600000000000000000000000000000000000000000000000000000000 DUP2 MSTORE PUSH1 0x4 ADD PUSH1 0x40 MLOAD DUP1 SWAP2 SUB SWAP1 REVERT JUMPDEST PUSH1 0x0 PUSH1 0x3 DUP3 DUP2 SLOAD DUP2 LT PUSH2 0x214 JUMPI PUSH2 0x214 PUSH2 0xAA2 JUMP JUMPDEST SWAP1 PUSH1 0x0 MSTORE PUSH1 0x20 PUSH1 0x0 KECCAK256 ADD SLOAD SWAP1 POP PUSH2 0x239 DUP2 PUSH1 0x0 SWAP1 DUP2 MSTORE PUSH1 0x2 PUSH1 0x20 MSTORE PUSH1 0x40 SWAP1 KECCAK256 SLOAD ISZERO ISZERO SWAP1 JUMP JUMPDEST PUSH2 0x26F JUMPI PUSH1 0x40 MLOAD PUSH32 0xA4A00AC000000000000000000000000000000000000000000000000000000000 DUP2 MSTORE PUSH1 0x4 ADD PUSH1 0x40 MLOAD DUP1 SWAP2 SUB SWAP1 REVERT JUMPDEST PUSH1 0x1 SLOAD PUSH1 0x40 MLOAD PUSH32 0x6352211E00000000000000000000000000000000000000000000000000000000 DUP2 MSTORE PUSH1 0x4 DUP2 ADD DUP4 SWAP1 MSTORE CALLER SWAP2 PUSH20 0xFFFFFFFFFFFFFFFFFFFFFFFFFFFFFFFFFFFFFFFF AND SWAP1 PUSH4 0x6352211E SWAP1 PUSH1 0x24 ADD PUSH1 0x20 PUSH1 0x40 MLOAD DUP1 DUP4 SUB DUP2 DUP7 GAS STATICCALL ISZERO DUP1 ISZERO PUSH2 0x2DE JUMPI RETURNDATASIZE PUSH1 0x0 DUP1 RETURNDATACOPY RETURNDATASIZE PUSH1 0x0 REVERT JUMPDEST POP POP POP POP PUSH1 0x40 MLOAD RETURNDATASIZE PUSH1 0x1F NOT PUSH1 0x1F DUP3 ADD AND DUP3 ADD DUP1 PUSH1 0x40 MSTORE POP DUP2 ADD SWAP1 PUSH2 0x302 SWAP2 SWAP1 PUSH2 0xAD1 JUMP JUMPDEST PUSH20 0xFFFFFFFFFFFFFFFFFFFFFFFFFFFFFFFFFFFFFFFF AND EQ PUSH2 0x34F JUMPI PUSH1 0x40 MLOAD PUSH32 0xFE09C7C100000000000000000000000000000000000000000000000000000000 DUP2 MSTORE PUSH1 0x4 ADD PUSH1 0x40 MLOAD DUP1 SWAP2 SUB SWAP1 REVERT JUMPDEST PUSH2 0x358 DUP3 PUSH2 0x99D JUMP JUMPDEST PUSH1 0x40 MLOAD DUP2 SWAP1 PUSH32 0xE41DBB904A61AC874FD8E5E06B2940187C26198D4623B35AC9C17E3380A41AB8 SWAP1 PUSH1 0x0 SWAP1 LOG2 POP POP JUMP JUMPDEST DUP1 PUSH1 0x0 SUB PUSH2 0x3C1 JUMPI PUSH1 0x40 MLOAD PUSH32 0x8587962C00000000000000000000000000000000000000000000000000000000 DUP2 MSTORE PUSH1 0x4 ADD PUSH1 0x40 MLOAD DUP1 SWAP2 SUB SWAP1 REVERT JUMPDEST PUSH1 0x1 SLOAD PUSH1 0x40 MLOAD PUSH32 0x6352211E00000000000000000000000000000000000000000000000000000000 DUP2 MSTORE PUSH1 0x4 DUP2 ADD DUP5 SWAP1 MSTORE CALLER SWAP2 PUSH20 0xFFFFFFFFFFFFFFFFFFFFFFFFFFFFFFFFFFFFFFFF AND SWAP1 PUSH4 0x6352211E SWAP1 PUSH1 0x24 ADD PUSH1 0x20 PUSH1 0x40 MLOAD DUP1 DUP4 SUB DUP2 DUP7 GAS STATICCALL ISZERO DUP1 ISZERO PUSH2 0x430 JUMPI RETURNDATASIZE PUSH1 0x0 DUP1 RETURNDATACOPY RETURNDATASIZE PUSH1 0x0 REVERT JUMPDEST POP POP POP POP PUSH1 0x40 MLOAD RETURNDATASIZE PUSH1 0x1F NOT PUSH1 0x1F DUP3 ADD AND DUP3 ADD DUP1 PUSH1 0x40 MSTORE POP DUP2 ADD SWAP1 PUSH2 0x454 SWAP2 SWAP1 PUSH2 0xAD1 JUMP JUMPDEST PUSH20 0xFFFFFFFFFFFFFFFFFFFFFFFFFFFFFFFFFFFFFFFF AND EQ PUSH2 0x4A1 JUMPI PUSH1 0x40 MLOAD PUSH32 0xFE09C7C100000000000000000000000000000000000000000000000000000000 DUP2 MSTORE PUSH1 0x4 ADD PUSH1 0x40 MLOAD DUP1 SWAP2 SUB SWAP1 REVERT JUMPDEST PUSH1 0x1 SLOAD PUSH1 0x40 MLOAD PUSH32 0x81812FC00000000000000000000000000000000000000000000000000000000 DUP2 MSTORE PUSH1 0x4 DUP2 ADD DUP5 SWAP1 MSTORE ADDRESS SWAP2 PUSH20 0xFFFFFFFFFFFFFFFFFFFFFFFFFFFFFFFFFFFFFFFF AND SWAP1 PUSH4 0x81812FC SWAP1 PUSH1 0x24 ADD PUSH1 0x20 PUSH1 0x40 MLOAD DUP1 DUP4 SUB DUP2 DUP7 GAS STATICCALL ISZERO DUP1 ISZERO PUSH2 0x510 JUMPI RETURNDATASIZE PUSH1 0x0 DUP1 RETURNDATACOPY RETURNDATASIZE PUSH1 0x0 REVERT JUMPDEST POP POP POP POP PUSH1 0x40 MLOAD RETURNDATASIZE PUSH1 0x1F NOT PUSH1 0x1F DUP3 ADD AND DUP3 ADD DUP1 PUSH1 0x40 MSTORE POP DUP2 ADD SWAP1 PUSH2 0x534 SWAP2 SWAP1 PUSH2 0xAD1 JUMP JUMPDEST PUSH20 0xFFFFFFFFFFFFFFFFFFFFFFFFFFFFFFFFFFFFFFFF AND EQ PUSH2 0x581 JUMPI PUSH1 0x40 MLOAD PUSH32 0x285C02FA00000000000000000000000000000000000000000000000000000000 DUP2 MSTORE PUSH1 0x4 ADD PUSH1 0x40 MLOAD DUP1 SWAP2 SUB SWAP1 REVERT JUMPDEST PUSH1 0x0 DUP3 DUP2 MSTORE PUSH1 0x2 PUSH1 0x20 MSTORE PUSH1 0x40 SWAP1 KECCAK256 SLOAD ISZERO PUSH2 0x5C7 JUMPI PUSH1 0x40 MLOAD PUSH32 0xBA1B06C00000000000000000000000000000000000000000000000000000000 DUP2 MSTORE PUSH1 0x4 ADD PUSH1 0x40 MLOAD DUP1 SWAP2 SUB SWAP1 REVERT JUMPDEST PUSH1 0x0 DUP3 DUP2 MSTORE PUSH1 0x2 PUSH1 0x20 MSTORE PUSH1 0x40 DUP1 DUP3 KECCAK256 DUP4 SWAP1 SSTORE PUSH1 0x3 DUP1 SLOAD PUSH1 0x1 DUP2 ADD DUP3 SSTORE SWAP3 MSTORE PUSH32 0xC2575A0E9E593C00F959F8C92F12DB2869C3395A3B0502D05E2516446F71F85B SWAP1 SWAP2 ADD DUP4 SWAP1 SSTORE MLOAD CALLER SWAP1 DUP4 SWAP1 PUSH32 0xD9B13B7A400D0BE3162DEB8753AAB49043593573BA6CD10369CD9A1EA5C0D214 SWAP1 PUSH2 0x640 SWAP1 DUP6 DUP2 MSTORE PUSH1 0x20 ADD SWAP1 JUMP JUMPDEST PUSH1 0x40 MLOAD DUP1 SWAP2 SUB SWAP1 LOG3 POP POP JUMP JUMPDEST PUSH1 0x3 DUP2 DUP2 SLOAD DUP2 LT PUSH2 0x65C JUMPI PUSH1 0x0 DUP1 REVERT JUMPDEST PUSH1 0x0 SWAP2 DUP3 MSTORE PUSH1 0x20 SWAP1 SWAP2 KECCAK256 ADD SLOAD SWAP1 POP DUP2 JUMP JUMPDEST PUSH1 0x3 SLOAD DUP2 LT PUSH2 0x6A8 JUMPI PUSH1 0x40 MLOAD PUSH32 0x724B3F3600000000000000000000000000000000000000000000000000000000 DUP2 MSTORE PUSH1 0x4 ADD PUSH1 0x40 MLOAD DUP1 SWAP2 SUB SWAP1 REVERT JUMPDEST DUP2 PUSH1 0x3 DUP3 DUP2 SLOAD DUP2 LT PUSH2 0x6BC JUMPI PUSH2 0x6BC PUSH2 0xAA2 JUMP JUMPDEST SWAP1 PUSH1 0x0 MSTORE PUSH1 0x20 PUSH1 0x0 KECCAK256 ADD SLOAD EQ PUSH2 0x6FE JUMPI PUSH1 0x40 MLOAD PUSH32 0x724B3F3600000000000000000000000000000000000000000000000000000000 DUP2 MSTORE PUSH1 0x4 ADD PUSH1 0x40 MLOAD DUP1 SWAP2 SUB SWAP1 REVERT JUMPDEST PUSH1 0x0 DUP3 DUP2 MSTORE PUSH1 0x2 PUSH1 0x20 MSTORE PUSH1 0x40 SWAP1 KECCAK256 SLOAD PUSH2 0x743 JUMPI PUSH1 0x40 MLOAD PUSH32 0xA4A00AC000000000000000000000000000000000000000000000000000000000 DUP2 MSTORE PUSH1 0x4 ADD PUSH1 0x40 MLOAD DUP1 SWAP2 SUB SWAP1 REVERT JUMPDEST PUSH1 0x1 SLOAD PUSH1 0x40 MLOAD PUSH32 0x6352211E00000000000000000000000000000000000000000000000000000000 DUP2 MSTORE PUSH1 0x4 DUP2 ADD DUP5 SWAP1 MSTORE PUSH1 0x0 SWAP2 PUSH20 0xFFFFFFFFFFFFFFFFFFFFFFFFFFFFFFFFFFFFFFFF AND SWAP1 PUSH4 0x6352211E SWAP1 PUSH1 0x24 ADD PUSH1 0x20 PUSH1 0x40 MLOAD DUP1 DUP4 SUB DUP2 DUP7 GAS STATICCALL ISZERO DUP1 ISZERO PUSH2 0x7B3 JUMPI RETURNDATASIZE PUSH1 0x0 DUP1 RETURNDATACOPY RETURNDATASIZE PUSH1 0x0 REVERT JUMPDEST POP POP POP POP PUSH1 0x40 MLOAD RETURNDATASIZE PUSH1 0x1F NOT PUSH1 0x1F DUP3 ADD AND DUP3 ADD DUP1 PUSH1 0x40 MSTORE POP DUP2 ADD SWAP1 PUSH2 0x7D7 SWAP2 SWAP1 PUSH2 0xAD1 JUMP JUMPDEST PUSH1 0x0 DUP5 DUP2 MSTORE PUSH1 0x2 PUSH1 0x20 MSTORE PUSH1 0x40 SWAP1 KECCAK256 SLOAD SWAP1 SWAP2 POP CALLER SWAP1 PUSH2 0x7F4 DUP5 PUSH2 0x99D JUMP JUMPDEST PUSH1 0x0 SLOAD PUSH1 0x40 MLOAD PUSH32 0x23B872DD00000000000000000000000000000000000000000000000000000000 DUP2 MSTORE PUSH20 0xFFFFFFFFFFFFFFFFFFFFFFFFFFFFFFFFFFFFFFFF DUP5 DUP2 AND PUSH1 0x4 DUP4 ADD MSTORE DUP6 DUP2 AND PUSH1 0x24 DUP4 ADD MSTORE PUSH1 0x44 DUP3 ADD DUP5 SWAP1 MSTORE SWAP1 SWAP2 AND SWAP1 PUSH4 0x23B872DD SWAP1 PUSH1 0x64 ADD PUSH1 0x20 PUSH1 0x40 MLOAD DUP1 DUP4 SUB DUP2 PUSH1 0x0 DUP8 GAS CALL ISZERO DUP1 ISZERO PUSH2 0x875 JUMPI RETURNDATASIZE PUSH1 0x0 DUP1 RETURNDATACOPY RETURNDATASIZE PUSH1 0x0 REVERT JUMPDEST POP POP POP POP PUSH1 0x40 MLOAD RETURNDATASIZE PUSH1 0x1F NOT PUSH1 0x1F DUP3 ADD AND DUP3 ADD DUP1 PUSH1 0x40 MSTORE POP DUP2 ADD SWAP1 PUSH2 0x899 SWAP2 SWAP1 PUSH2 0xB0E JUMP JUMPDEST POP PUSH1 0x1 SLOAD PUSH1 0x40 MLOAD PUSH32 0x23B872DD00000000000000000000000000000000000000000000000000000000 DUP2 MSTORE PUSH20 0xFFFFFFFFFFFFFFFFFFFFFFFFFFFFFFFFFFFFFFFF DUP6 DUP2 AND PUSH1 0x4 DUP4 ADD MSTORE DUP5 DUP2 AND PUSH1 0x24 DUP4 ADD MSTORE PUSH1 0x44 DUP3 ADD DUP9 SWAP1 MSTORE SWAP1 SWAP2 AND SWAP1 PUSH4 0x23B872DD SWAP1 PUSH1 0x64 ADD PUSH1 0x0 PUSH1 0x40 MLOAD DUP1 DUP4 SUB DUP2 PUSH1 0x0 DUP8 DUP1 EXTCODESIZE ISZERO DUP1 ISZERO PUSH2 0x916 JUMPI PUSH1 0x0 DUP1 REVERT JUMPDEST POP GAS CALL ISZERO DUP1 ISZERO PUSH2 0x92A JUMPI RETURNDATASIZE PUSH1 0x0 DUP1 RETURNDATACOPY RETURNDATASIZE PUSH1 0x0 REVERT JUMPDEST POP POP POP POP DUP2 PUSH20 0xFFFFFFFFFFFFFFFFFFFFFFFFFFFFFFFFFFFFFFFF AND DUP4 PUSH20 0xFFFFFFFFFFFFFFFFFFFFFFFFFFFFFFFFFFFFFFFF AND DUP7 PUSH32 0x73EE6083753970C82CF2D93FF7BB0432E00E0155C4096741EA134C74F67EB02B DUP5 PUSH1 0x40 MLOAD PUSH2 0x98E SWAP2 DUP2 MSTORE PUSH1 0x20 ADD SWAP1 JUMP JUMPDEST PUSH1 0x40 MLOAD DUP1 SWAP2 SUB SWAP1 LOG4 POP POP POP POP POP JUMP JUMPDEST PUSH1 0x0 PUSH1 0x3 DUP3 DUP2 SLOAD DUP2 LT PUSH2 0x9B2 JUMPI PUSH2 0x9B2 PUSH2 0xAA2 JUMP JUMPDEST SWAP1 PUSH1 0x0 MSTORE PUSH1 0x20 PUSH1 0x0 KECCAK256 ADD SLOAD SWAP1 POP PUSH1 0x3 PUSH1 0x1 PUSH1 0x3 DUP1 SLOAD SWAP1 POP PUSH2 0x9D3 SWAP2 SWAP1 PUSH2 0xB30 JUMP JUMPDEST DUP2 SLOAD DUP2 LT PUSH2 0x9E3 JUMPI PUSH2 0x9E3 PUSH2 0xAA2 JUMP JUMPDEST SWAP1 PUSH1 0x0 MSTORE PUSH1 0x20 PUSH1 0x0 KECCAK256 ADD SLOAD PUSH1 0x3 DUP4 DUP2 SLOAD DUP2 LT PUSH2 0xA01 JUMPI PUSH2 0xA01 PUSH2 0xAA2 JUMP JUMPDEST PUSH1 0x0 SWAP2 DUP3 MSTORE PUSH1 0x20 SWAP1 SWAP2 KECCAK256 ADD SSTORE PUSH1 0x3 DUP1 SLOAD DUP1 PUSH2 0xA1E JUMPI PUSH2 0xA1E PUSH2 0xB70 JUMP JUMPDEST PUSH1 0x0 DUP3 DUP2 MSTORE PUSH1 0x20 DUP1 DUP3 KECCAK256 DUP4 ADD PUSH32 0xFFFFFFFFFFFFFFFFFFFFFFFFFFFFFFFFFFFFFFFFFFFFFFFFFFFFFFFFFFFFFFFF SWAP1 DUP2 ADD DUP4 SWAP1 SSTORE SWAP1 SWAP3 ADD SWAP1 SWAP3 SSTORE SWAP2 DUP2 MSTORE PUSH1 0x2 SWAP1 SWAP2 MSTORE PUSH1 0x40 DUP2 KECCAK256 SSTORE POP JUMP JUMPDEST PUSH1 0x0 PUSH1 0x20 DUP3 DUP5 SUB SLT ISZERO PUSH2 0xA79 JUMPI PUSH1 0x0 DUP1 REVERT JUMPDEST POP CALLDATALOAD SWAP2 SWAP1 POP JUMP JUMPDEST PUSH1 0x0 DUP1 PUSH1 0x40 DUP4 DUP6 SUB SLT ISZERO PUSH2 0xA93 JUMPI PUSH1 0x0 DUP1 REVERT JUMPDEST POP POP DUP1 CALLDATALOAD SWAP3 PUSH1 0x20 SWAP1 SWAP2 ADD CALLDATALOAD SWAP2 POP JUMP JUMPDEST PUSH32 0x4E487B7100000000000000000000000000000000000000000000000000000000 PUSH1 0x0 MSTORE PUSH1 0x32 PUSH1 0x4 MSTORE PUSH1 0x24 PUSH1 0x0 REVERT JUMPDEST PUSH1 0x0 PUSH1 0x20 DUP3 DUP5 SUB SLT ISZERO PUSH2 0xAE3 JUMPI PUSH1 0x0 DUP1 REVERT JUMPDEST DUP2 MLOAD PUSH20 0xFFFFFFFFFFFFFFFFFFFFFFFFFFFFFFFFFFFFFFFF DUP2 AND DUP2 EQ PUSH2 0xB07 JUMPI PUSH1 0x0 DUP1 REVERT JUMPDEST SWAP4 SWAP3 POP POP POP JUMP JUMPDEST PUSH1 0x0 PUSH1 0x20 DUP3 DUP5 SUB SLT ISZERO PUSH2 0xB20 JUMPI PUSH1 0x0 DUP1 REVERT JUMPDEST DUP2 MLOAD DUP1 ISZERO ISZERO DUP2 EQ PUSH2 0xB07 JUMPI PUSH1 0x0 DUP1 REVERT JUMPDEST DUP2 DUP2 SUB DUP2 DUP2 GT ISZERO PUSH2 0xB6A JUMPI PUSH32 0x4E487B7100000000000000000000000000000000000000000000000000000000 PUSH1 0x0 MSTORE PUSH1 0x11 PUSH1 0x4 MSTORE PUSH1 0x24 PUSH1 0x0 REVERT JUMPDEST SWAP3 SWAP2 POP POP JUMP JUMPDEST PUSH32 0x4E487B7100000000000000000000000000000000000000000000000000000000 PUSH1 0x0 MSTORE PUSH1 0x31 PUSH1 0x4 MSTORE PUSH1 0x24 PUSH1 0x0 REVERT INVALID LOG2 PUSH5 0x6970667358 0x22 SLT KECCAK256 PUSH20 0x76D8CB6FE89272D85636145B86770D38DF1841B1 0xA8 0xB5 LT SELFBALANCE 0x27 PUSH7 0x99B595A2736473 PUSH16 0x6C634300081200330000000000000000 "},"methodIdentifiers":{"buy(uint256,uint256)":"d6febde8","deList(uint256)":"43be2d03","isListed(uint256)":"fcce4883","itemPrices(uint256)":"bf91ad9e","list(uint256,uint256)":"50fd7367","listCount()":"1b68d10d","listedItems(uint256)":"d2347061","mungNFT()":"765b1048","mungToken()":"7985a0af"}}}}}