{"contracts/MungStaker.sol":{"MungStaker":{"abi":[{"inputs":[{"internalType":"address","name":"mungToken_","type":"address"},{"internalType":"address","name":"mungNFT_","type":"address"}],"stateMutability":"nonpayable","type":"constructor"},{"inputs":[],"name":"MungStaker__LockUpAlreadyExists","type":"error"},{"inputs":[],"name":"MungStaker__LockUpDoesNotExists","type":"error"},{"inputs":[],"name":"MungStaker__LockUpHasNotMatured","type":"error"},{"anonymous":false,"inputs":[{"indexed":true,"internalType":"address","name":"user","type":"address"},{"indexed":false,"internalType":"uint256","name":"tokenId","type":"uint256"}],"name":"LockedUp","type":"event"},{"anonymous":false,"inputs":[{"indexed":true,"internalType":"address","name":"user","type":"address"},{"indexed":false,"internalType":"uint256","name":"tokenId","type":"uint256"}],"name":"Unlocked","type":"event"},{"inputs":[],"name":"FARMING_AMOUNT","outputs":[{"internalType":"uint256","name":"","type":"uint256"}],"stateMutability":"view","type":"function"},{"inputs":[],"name":"LOCK_UP_DURATION","outputs":[{"internalType":"uint256","name":"","type":"uint256"}],"stateMutability":"view","type":"function"},{"inputs":[],"name":"activeLockUpCount","outputs":[{"internalType":"uint256","name":"","type":"uint256"}],"stateMutability":"view","type":"function"},{"inputs":[{"internalType":"uint256","name":"tokenId","type":"uint256"}],"name":"lockUp","outputs":[],"stateMutability":"nonpayable","type":"function"},{"inputs":[{"internalType":"uint256","name":"tokenId","type":"uint256"}],"name":"lockUpExists","outputs":[{"internalType":"bool","name":"","type":"bool"}],"stateMutability":"view","type":"function"},{"inputs":[],"name":"mungNFT","outputs":[{"internalType":"contract IERC721","name":"","type":"address"}],"stateMutability":"view","type":"function"},{"inputs":[],"name":"mungToken","outputs":[{"internalType":"contract IMungToken","name":"","type":"address"}],"stateMutability":"view","type":"function"},{"inputs":[{"internalType":"uint256","name":"","type":"uint256"}],"name":"tokenLockUp","outputs":[{"internalType":"uint40","name":"lockedAt","type":"uint40"},{"internalType":"address","name":"user","type":"address"}],"stateMutability":"view","type":"function"},{"inputs":[{"internalType":"uint256","name":"tokenId","type":"uint256"}],"name":"unlock","outputs":[],"stateMutability":"nonpayable","type":"function"}],"evm":{"bytecode":{"linkReferences":{},"object":"608060405234801561001057600080fd5b5060405161072a38038061072a83398101604081905261002f9161007c565b600080546001600160a01b039384166001600160a01b031991821617909155600180549290931691161790556100af565b80516001600160a01b038116811461007757600080fd5b919050565b6000806040838503121561008f57600080fd5b61009883610060565b91506100a660208401610060565b90509250929050565b61066c806100be6000396000f3fe608060405234801561001057600080fd5b50600436106100a35760003560e01c8063765b1048116100765780638e25a85e1161005b5780638e25a85e146101cb578063a14a47ac146101d4578063e58a44491461020d57600080fd5b8063765b1048146101665780637985a0af146101ab57600080fd5b806324bdc190146100a85780634c522744146100c45780636198e3391461013e5780637655a59014610153575b600080fd5b6100b160035481565b6040519081526020015b60405180910390f35b61010c6100d23660046105c2565b60026020526000908152604090205464ffffffffff81169065010000000000900473ffffffffffffffffffffffffffffffffffffffff1682565b6040805164ffffffffff909316835273ffffffffffffffffffffffffffffffffffffffff9091166020830152016100bb565b61015161014c3660046105c2565b61021d565b005b6101516101613660046105c2565b61045c565b6001546101869073ffffffffffffffffffffffffffffffffffffffff1681565b60405173ffffffffffffffffffffffffffffffffffffffff90911681526020016100bb565b6000546101869073ffffffffffffffffffffffffffffffffffffffff1681565b6100b161025881565b6101fd6101e23660046105c2565b60009081526002602052604090205464ffffffffff16151590565b60405190151581526020016100bb565b6100b168056bc75e2d6310000081565b60008181526002602052604081208054909164ffffffffff9091169003610270576040517f91d7efd400000000000000000000000000000000000000000000000000000000815260040160405180910390fd5b80544290610288906102589064ffffffffff1661060a565b106102bf576040517f193c7e8200000000000000000000000000000000000000000000000000000000815260040160405180910390fd5b80547fffffffffffffff0000000000000000000000000000000000000000000000000016815560038054600191906000906102fb908490610623565b90915550506001546040517f23b872dd0000000000000000000000000000000000000000000000000000000081523060048201523360248201526044810184905273ffffffffffffffffffffffffffffffffffffffff909116906323b872dd90606401600060405180830381600087803b15801561037857600080fd5b505af115801561038c573d6000803e3d6000fd5b50506000546040517f40c10f1900000000000000000000000000000000000000000000000000000000815233600482015268056bc75e2d63100000602482015273ffffffffffffffffffffffffffffffffffffffff90911692506340c10f199150604401600060405180830381600087803b15801561040a57600080fd5b505af115801561041e573d6000803e3d6000fd5b50506040518481523392507f0f0bc5b519ddefdd8e5f9e6423433aa2b869738de2ae34d58ebc796fc749fa0d91506020015b60405180910390a25050565b6000818152600260205260409020805464ffffffffff16156104aa576040517fb23f8ba700000000000000000000000000000000000000000000000000000000815260040160405180910390fd5b6001546040517f23b872dd0000000000000000000000000000000000000000000000000000000081523360048201523060248201526044810184905273ffffffffffffffffffffffffffffffffffffffff909116906323b872dd90606401600060405180830381600087803b15801561052257600080fd5b505af1158015610536573d6000803e3d6000fd5b505082546501000000000033027fffffffffffffff0000000000000000000000000000000000000000000000000090911664ffffffffff4216171783555050600380546001919060009061058b90849061060a565b909155505060405182815233907fdf72d37adc3f256068f06daa37fec845a1b3b4dadc14a62dd3e89252387be0ef90602001610450565b6000602082840312156105d457600080fd5b5035919050565b7f4e487b7100000000000000000000000000000000000000000000000000000000600052601160045260246000fd5b8082018082111561061d5761061d6105db565b92915050565b8181038181111561061d5761061d6105db56fea264697066735822122074e604cd95c20d37b45a30800e41b92cbc43b7e2c1b61becaee45368087f9f0764736f6c63430008120033","opcodes":"PUSH1 0x80 PUSH1 0x40 MSTORE CALLVALUE DUP1 ISZERO PUSH2 0x10 JUMPI PUSH1 0x0 DUP1 REVERT JUMPDEST POP PUSH1 0x40 MLOAD PUSH2 0x72A CODESIZE SUB DUP1 PUSH2 0x72A DUP4 CODECOPY DUP2 ADD PUSH1 0x40 DUP2 SWAP1 MSTORE PUSH2 0x2F SWAP2 PUSH2 0x7C JUMP JUMPDEST PUSH1 0x0 DUP1 SLOAD PUSH1 0x1 PUSH1 0x1 PUSH1 0xA0 SHL SUB SWAP4 DUP5 AND PUSH1 0x1 PUSH1 0x1 PUSH1 0xA0 SHL SUB NOT SWAP2 DUP3 AND OR SWAP1 SWAP2 SSTORE PUSH1 0x1 DUP1 SLOAD SWAP3 SWAP1 SWAP4 AND SWAP2 AND OR SWAP1 SSTORE PUSH2 0xAF JUMP JUMPDEST DUP1 MLOAD PUSH1 0x1 PUSH1 0x1 PUSH1 0xA0 SHL SUB DUP2 AND DUP2 EQ PUSH2 0x77 JUMPI PUSH1 0x0 DUP1 REVERT JUMPDEST SWAP2 SWAP1 POP JUMP JUMPDEST PUSH1 0x0 DUP1 PUSH1 0x40 DUP4 DUP6 SUB SLT ISZERO PUSH2 0x8F JUMPI PUSH1 0x0 DUP1 REVERT JUMPDEST PUSH2 0x98 DUP4 PUSH2 0x60 JUMP JUMPDEST SWAP2 POP PUSH2 0xA6 PUSH1 0x20 DUP5 ADD PUSH2 0x60 JUMP JUMPDEST SWAP1 POP SWAP3 POP SWAP3 SWAP1 POP JUMP JUMPDEST PUSH2 0x66C DUP1 PUSH2 0xBE PUSH1 0x0 CODECOPY PUSH1 0x0 RETURN INVALID PUSH1 0x80 PUSH1 0x40 MSTORE CALLVALUE DUP1 ISZERO PUSH2 0x10 JUMPI PUSH1 0x0 DUP1 REVERT JUMPDEST POP PUSH1 0x4 CALLDATASIZE LT PUSH2 0xA3 JUMPI PUSH1 0x0 CALLDATALOAD PUSH1 0xE0 SHR DUP1 PUSH4 0x765B1048 GT PUSH2 0x76 JUMPI DUP1 PUSH4 0x8E25A85E GT PUSH2 0x5B JUMPI DUP1 PUSH4 0x8E25A85E EQ PUSH2 0x1CB JUMPI DUP1 PUSH4 0xA14A47AC EQ PUSH2 0x1D4 JUMPI DUP1 PUSH4 0xE58A4449 EQ PUSH2 0x20D JUMPI PUSH1 0x0 DUP1 REVERT JUMPDEST DUP1 PUSH4 0x765B1048 EQ PUSH2 0x166 JUMPI DUP1 PUSH4 0x7985A0AF EQ PUSH2 0x1AB JUMPI PUSH1 0x0 DUP1 REVERT JUMPDEST DUP1 PUSH4 0x24BDC190 EQ PUSH2 0xA8 JUMPI DUP1 PUSH4 0x4C522744 EQ PUSH2 0xC4 JUMPI DUP1 PUSH4 0x6198E339 EQ PUSH2 0x13E JUMPI DUP1 PUSH4 0x7655A590 EQ PUSH2 0x153 JUMPI JUMPDEST PUSH1 0x0 DUP1 REVERT JUMPDEST PUSH2 0xB1 PUSH1 0x3 SLOAD DUP2 JUMP JUMPDEST PUSH1 0x40 MLOAD SWAP1 DUP2 MSTORE PUSH1 0x20 ADD JUMPDEST PUSH1 0x40 MLOAD DUP1 SWAP2 SUB SWAP1 RETURN JUMPDEST PUSH2 0x10C PUSH2 0xD2 CALLDATASIZE PUSH1 0x4 PUSH2 0x5C2 JUMP JUMPDEST PUSH1 0x2 PUSH1 0x20 MSTORE PUSH1 0x0 SWAP1 DUP2 MSTORE PUSH1 0x40 SWAP1 KECCAK256 SLOAD PUSH5 0xFFFFFFFFFF DUP2 AND SWAP1 PUSH6 0x10000000000 SWAP1 DIV PUSH20 0xFFFFFFFFFFFFFFFFFFFFFFFFFFFFFFFFFFFFFFFF AND DUP3 JUMP JUMPDEST PUSH1 0x40 DUP1 MLOAD PUSH5 0xFFFFFFFFFF SWAP1 SWAP4 AND DUP4 MSTORE PUSH20 0xFFFFFFFFFFFFFFFFFFFFFFFFFFFFFFFFFFFFFFFF SWAP1 SWAP2 AND PUSH1 0x20 DUP4 ADD MSTORE ADD PUSH2 0xBB JUMP JUMPDEST PUSH2 0x151 PUSH2 0x14C CALLDATASIZE PUSH1 0x4 PUSH2 0x5C2 JUMP JUMPDEST PUSH2 0x21D JUMP JUMPDEST STOP JUMPDEST PUSH2 0x151 PUSH2 0x161 CALLDATASIZE PUSH1 0x4 PUSH2 0x5C2 JUMP JUMPDEST PUSH2 0x45C JUMP JUMPDEST PUSH1 0x1 SLOAD PUSH2 0x186 SWAP1 PUSH20 0xFFFFFFFFFFFFFFFFFFFFFFFFFFFFFFFFFFFFFFFF AND DUP2 JUMP JUMPDEST PUSH1 0x40 MLOAD PUSH20 0xFFFFFFFFFFFFFFFFFFFFFFFFFFFFFFFFFFFFFFFF SWAP1 SWAP2 AND DUP2 MSTORE PUSH1 0x20 ADD PUSH2 0xBB JUMP JUMPDEST PUSH1 0x0 SLOAD PUSH2 0x186 SWAP1 PUSH20 0xFFFFFFFFFFFFFFFFFFFFFFFFFFFFFFFFFFFFFFFF AND DUP2 JUMP JUMPDEST PUSH2 0xB1 PUSH2 0x258 DUP2 JUMP JUMPDEST PUSH2 0x1FD PUSH2 0x1E2 CALLDATASIZE PUSH1 0x4 PUSH2 0x5C2 JUMP JUMPDEST PUSH1 0x0 SWAP1 DUP2 MSTORE PUSH1 0x2 PUSH1 0x20 MSTORE PUSH1 0x40 SWAP1 KECCAK256 SLOAD PUSH5 0xFFFFFFFFFF AND ISZERO ISZERO SWAP1 JUMP JUMPDEST PUSH1 0x40 MLOAD SWAP1 ISZERO ISZERO DUP2 MSTORE PUSH1 0x20 ADD PUSH2 0xBB JUMP JUMPDEST PUSH2 0xB1 PUSH9 0x56BC75E2D63100000 DUP2 JUMP JUMPDEST PUSH1 0x0 DUP2 DUP2 MSTORE PUSH1 0x2 PUSH1 0x20 MSTORE PUSH1 0x40 DUP2 KECCAK256 DUP1 SLOAD SWAP1 SWAP2 PUSH5 0xFFFFFFFFFF SWAP1 SWAP2 AND SWAP1 SUB PUSH2 0x270 JUMPI PUSH1 0x40 MLOAD PUSH32 0x91D7EFD400000000000000000000000000000000000000000000000000000000 DUP2 MSTORE PUSH1 0x4 ADD PUSH1 0x40 MLOAD DUP1 SWAP2 SUB SWAP1 REVERT JUMPDEST DUP1 SLOAD TIMESTAMP SWAP1 PUSH2 0x288 SWAP1 PUSH2 0x258 SWAP1 PUSH5 0xFFFFFFFFFF AND PUSH2 0x60A JUMP JUMPDEST LT PUSH2 0x2BF JUMPI PUSH1 0x40 MLOAD PUSH32 0x193C7E8200000000000000000000000000000000000000000000000000000000 DUP2 MSTORE PUSH1 0x4 ADD PUSH1 0x40 MLOAD DUP1 SWAP2 SUB SWAP1 REVERT JUMPDEST DUP1 SLOAD PUSH32 0xFFFFFFFFFFFFFF00000000000000000000000000000000000000000000000000 AND DUP2 SSTORE PUSH1 0x3 DUP1 SLOAD PUSH1 0x1 SWAP2 SWAP1 PUSH1 0x0 SWAP1 PUSH2 0x2FB SWAP1 DUP5 SWAP1 PUSH2 0x623 JUMP JUMPDEST SWAP1 SWAP2 SSTORE POP POP PUSH1 0x1 SLOAD PUSH1 0x40 MLOAD PUSH32 0x23B872DD00000000000000000000000000000000000000000000000000000000 DUP2 MSTORE ADDRESS PUSH1 0x4 DUP3 ADD MSTORE CALLER PUSH1 0x24 DUP3 ADD MSTORE PUSH1 0x44 DUP2 ADD DUP5 SWAP1 MSTORE PUSH20 0xFFFFFFFFFFFFFFFFFFFFFFFFFFFFFFFFFFFFFFFF SWAP1 SWAP2 AND SWAP1 PUSH4 0x23B872DD SWAP1 PUSH1 0x64 ADD PUSH1 0x0 PUSH1 0x40 MLOAD DUP1 DUP4 SUB DUP2 PUSH1 0x0 DUP8 DUP1 EXTCODESIZE ISZERO DUP1 ISZERO PUSH2 0x378 JUMPI PUSH1 0x0 DUP1 REVERT JUMPDEST POP GAS CALL ISZERO DUP1 ISZERO PUSH2 0x38C JUMPI RETURNDATASIZE PUSH1 0x0 DUP1 RETURNDATACOPY RETURNDATASIZE PUSH1 0x0 REVERT JUMPDEST POP POP PUSH1 0x0 SLOAD PUSH1 0x40 MLOAD PUSH32 0x40C10F1900000000000000000000000000000000000000000000000000000000 DUP2 MSTORE CALLER PUSH1 0x4 DUP3 ADD MSTORE PUSH9 0x56BC75E2D63100000 PUSH1 0x24 DUP3 ADD MSTORE PUSH20 0xFFFFFFFFFFFFFFFFFFFFFFFFFFFFFFFFFFFFFFFF SWAP1 SWAP2 AND SWAP3 POP PUSH4 0x40C10F19 SWAP2 POP PUSH1 0x44 ADD PUSH1 0x0 PUSH1 0x40 MLOAD DUP1 DUP4 SUB DUP2 PUSH1 0x0 DUP8 DUP1 EXTCODESIZE ISZERO DUP1 ISZERO PUSH2 0x40A JUMPI PUSH1 0x0 DUP1 REVERT JUMPDEST POP GAS CALL ISZERO DUP1 ISZERO PUSH2 0x41E JUMPI RETURNDATASIZE PUSH1 0x0 DUP1 RETURNDATACOPY RETURNDATASIZE PUSH1 0x0 REVERT JUMPDEST POP POP PUSH1 0x40 MLOAD DUP5 DUP2 MSTORE CALLER SWAP3 POP PUSH32 0xF0BC5B519DDEFDD8E5F9E6423433AA2B869738DE2AE34D58EBC796FC749FA0D SWAP2 POP PUSH1 0x20 ADD JUMPDEST PUSH1 0x40 MLOAD DUP1 SWAP2 SUB SWAP1 LOG2 POP POP JUMP JUMPDEST PUSH1 0x0 DUP2 DUP2 MSTORE PUSH1 0x2 PUSH1 0x20 MSTORE PUSH1 0x40 SWAP1 KECCAK256 DUP1 SLOAD PUSH5 0xFFFFFFFFFF AND ISZERO PUSH2 0x4AA JUMPI PUSH1 0x40 MLOAD PUSH32 0xB23F8BA700000000000000000000000000000000000000000000000000000000 DUP2 MSTORE PUSH1 0x4 ADD PUSH1 0x40 MLOAD DUP1 SWAP2 SUB SWAP1 REVERT JUMPDEST PUSH1 0x1 SLOAD PUSH1 0x40 MLOAD PUSH32 0x23B872DD00000000000000000000000000000000000000000000000000000000 DUP2 MSTORE CALLER PUSH1 0x4 DUP3 ADD MSTORE ADDRESS PUSH1 0x24 DUP3 ADD MSTORE PUSH1 0x44 DUP2 ADD DUP5 SWAP1 MSTORE PUSH20 0xFFFFFFFFFFFFFFFFFFFFFFFFFFFFFFFFFFFFFFFF SWAP1 SWAP2 AND SWAP1 PUSH4 0x23B872DD SWAP1 PUSH1 0x64 ADD PUSH1 0x0 PUSH1 0x40 MLOAD DUP1 DUP4 SUB DUP2 PUSH1 0x0 DUP8 DUP1 EXTCODESIZE ISZERO DUP1 ISZERO PUSH2 0x522 JUMPI PUSH1 0x0 DUP1 REVERT JUMPDEST POP GAS CALL ISZERO DUP1 ISZERO PUSH2 0x536 JUMPI RETURNDATASIZE PUSH1 0x0 DUP1 RETURNDATACOPY RETURNDATASIZE PUSH1 0x0 REVERT JUMPDEST POP POP DUP3 SLOAD PUSH6 0x10000000000 CALLER MUL PUSH32 0xFFFFFFFFFFFFFF00000000000000000000000000000000000000000000000000 SWAP1 SWAP2 AND PUSH5 0xFFFFFFFFFF TIMESTAMP AND OR OR DUP4 SSTORE POP POP PUSH1 0x3 DUP1 SLOAD PUSH1 0x1 SWAP2 SWAP1 PUSH1 0x0 SWAP1 PUSH2 0x58B SWAP1 DUP5 SWAP1 PUSH2 0x60A JUMP JUMPDEST SWAP1 SWAP2 SSTORE POP POP PUSH1 0x40 MLOAD DUP3 DUP2 MSTORE CALLER SWAP1 PUSH32 0xDF72D37ADC3F256068F06DAA37FEC845A1B3B4DADC14A62DD3E89252387BE0EF SWAP1 PUSH1 0x20 ADD PUSH2 0x450 JUMP JUMPDEST PUSH1 0x0 PUSH1 0x20 DUP3 DUP5 SUB SLT ISZERO PUSH2 0x5D4 JUMPI PUSH1 0x0 DUP1 REVERT JUMPDEST POP CALLDATALOAD SWAP2 SWAP1 POP JUMP JUMPDEST PUSH32 0x4E487B7100000000000000000000000000000000000000000000000000000000 PUSH1 0x0 MSTORE PUSH1 0x11 PUSH1 0x4 MSTORE PUSH1 0x24 PUSH1 0x0 REVERT JUMPDEST DUP1 DUP3 ADD DUP1 DUP3 GT ISZERO PUSH2 0x61D JUMPI PUSH2 0x61D PUSH2 0x5DB JUMP JUMPDEST SWAP3 SWAP2 POP POP JUMP JUMPDEST DUP2 DUP2 SUB DUP2 DUP2 GT ISZERO PUSH2 0x61D JUMPI PUSH2 0x61D PUSH2 0x5DB JUMP INVALID LOG2 PUSH5 0x6970667358 0x22 SLT KECCAK256 PUSH21 0xE604CD95C20D37B45A30800E41B92CBC43B7E2C1B6 SHL 0xEC 0xAE 0xE4 MSTORE8 PUSH9 0x87F9F0764736F6C63 NUMBER STOP ADDMOD SLT STOP CALLER "},"methodIdentifiers":{"FARMING_AMOUNT()":"e58a4449","LOCK_UP_DURATION()":"8e25a85e","activeLockUpCount()":"24bdc190","lockUp(uint256)":"7655a590","lockUpExists(uint256)":"a14a47ac","mungNFT()":"765b1048","mungToken()":"7985a0af","tokenLockUp(uint256)":"4c522744","unlock(uint256)":"6198e339"}}}}}