{
  "_format": "hh-sol-artifact-1",
  "contractName": "MungMarket",
  "sourceName": "contracts/MungMarket.sol",
  "abi": [
    {
      "inputs": [
        {
          "internalType": "address",
          "name": "mungToken_",
          "type": "address"
        },
        {
          "internalType": "address",
          "name": "mungNFT_",
          "type": "address"
        }
      ],
      "stateMutability": "nonpayable",
      "type": "constructor"
    },
    {
      "inputs": [],
      "name": "MungMarket__AlreadyListed",
      "type": "error"
    },
    {
      "inputs": [],
      "name": "MungMarket__InvalidParams",
      "type": "error"
    },
    {
      "inputs": [],
      "name": "MungMarket__InvalidPrice",
      "type": "error"
    },
    {
      "inputs": [],
      "name": "MungMarket__NotApproved",
      "type": "error"
    },
    {
      "inputs": [],
      "name": "MungMarket__NotListed",
      "type": "error"
    },
    {
      "inputs": [],
      "name": "MungMarket__PermissionDenied",
      "type": "error"
    },
    {
      "anonymous": false,
      "inputs": [
        {
          "indexed": true,
          "internalType": "uint256",
          "name": "tokenId",
          "type": "uint256"
        },
        {
          "indexed": false,
          "internalType": "uint256",
          "name": "price",
          "type": "uint256"
        },
        {
          "indexed": true,
          "internalType": "address",
          "name": "seller",
          "type": "address"
        },
        {
          "indexed": true,
          "internalType": "address",
          "name": "buyer",
          "type": "address"
        }
      ],
      "name": "Buy",
      "type": "event"
    },
    {
      "anonymous": false,
      "inputs": [
        {
          "indexed": true,
          "internalType": "uint256",
          "name": "tokenId",
          "type": "uint256"
        }
      ],
      "name": "DeList",
      "type": "event"
    },
    {
      "anonymous": false,
      "inputs": [
        {
          "indexed": true,
          "internalType": "uint256",
          "name": "tokenId",
          "type": "uint256"
        },
        {
          "indexed": false,
          "internalType": "uint256",
          "name": "price",
          "type": "uint256"
        },
        {
          "indexed": true,
          "internalType": "address",
          "name": "seller",
          "type": "address"
        }
      ],
      "name": "List",
      "type": "event"
    },
    {
      "inputs": [
        {
          "internalType": "uint256",
          "name": "tokenId",
          "type": "uint256"
        },
        {
          "internalType": "uint256",
          "name": "listIndex",
          "type": "uint256"
        }
      ],
      "name": "buy",
      "outputs": [],
      "stateMutability": "nonpayable",
      "type": "function"
    },
    {
      "inputs": [
        {
          "internalType": "uint256",
          "name": "listIndex",
          "type": "uint256"
        }
      ],
      "name": "deList",
      "outputs": [],
      "stateMutability": "nonpayable",
      "type": "function"
    },
    {
      "inputs": [
        {
          "internalType": "uint256",
          "name": "tokenId",
          "type": "uint256"
        }
      ],
      "name": "isListed",
      "outputs": [
        {
          "internalType": "bool",
          "name": "",
          "type": "bool"
        }
      ],
      "stateMutability": "view",
      "type": "function"
    },
    {
      "inputs": [
        {
          "internalType": "uint256",
          "name": "",
          "type": "uint256"
        }
      ],
      "name": "itemPrices",
      "outputs": [
        {
          "internalType": "uint256",
          "name": "",
          "type": "uint256"
        }
      ],
      "stateMutability": "view",
      "type": "function"
    },
    {
      "inputs": [
        {
          "internalType": "uint256",
          "name": "tokenId",
          "type": "uint256"
        },
        {
          "internalType": "uint256",
          "name": "price",
          "type": "uint256"
        }
      ],
      "name": "list",
      "outputs": [],
      "stateMutability": "nonpayable",
      "type": "function"
    },
    {
      "inputs": [],
      "name": "listCount",
      "outputs": [
        {
          "internalType": "uint256",
          "name": "",
          "type": "uint256"
        }
      ],
      "stateMutability": "view",
      "type": "function"
    },
    {
      "inputs": [
        {
          "internalType": "uint256",
          "name": "",
          "type": "uint256"
        }
      ],
      "name": "listedItems",
      "outputs": [
        {
          "internalType": "uint256",
          "name": "",
          "type": "uint256"
        }
      ],
      "stateMutability": "view",
      "type": "function"
    },
    {
      "inputs": [],
      "name": "mungNFT",
      "outputs": [
        {
          "internalType": "contract IERC721",
          "name": "",
          "type": "address"
        }
      ],
      "stateMutability": "view",
      "type": "function"
    },
    {
      "inputs": [],
      "name": "mungToken",
      "outputs": [
        {
          "internalType": "contract IERC20",
          "name": "",
          "type": "address"
        }
      ],
      "stateMutability": "view",
      "type": "function"
    }
  ],
  "bytecode": "0x608060405234801561001057600080fd5b50604051610c93380380610c9383398101604081905261002f9161007c565b600080546001600160a01b039384166001600160a01b031991821617909155600180549290931691161790556100af565b80516001600160a01b038116811461007757600080fd5b919050565b6000806040838503121561008f57600080fd5b61009883610060565b91506100a660208401610060565b90509250929050565b610bd5806100be6000396000f3fe608060405234801561001057600080fd5b50600436106100a35760003560e01c80637985a0af11610076578063d23470611161005b578063d23470611461016c578063d6febde81461017f578063fcce48831461019257600080fd5b80637985a0af1461012c578063bf91ad9e1461014c57600080fd5b80631b68d10d146100a857806343be2d03146100bf57806350fd7367146100d4578063765b1048146100e7575b600080fd5b6003545b6040519081526020015b60405180910390f35b6100d26100cd366004610a67565b6101c4565b005b6100d26100e2366004610a80565b610387565b6001546101079073ffffffffffffffffffffffffffffffffffffffff1681565b60405173ffffffffffffffffffffffffffffffffffffffff90911681526020016100b6565b6000546101079073ffffffffffffffffffffffffffffffffffffffff1681565b6100ac61015a366004610a67565b60026020526000908152604090205481565b6100ac61017a366004610a67565b61064c565b6100d261018d366004610a80565b61066d565b6101b46101a0366004610a67565b600090815260026020526040902054151590565b60405190151581526020016100b6565b60035481106101ff576040517f724b3f3600000000000000000000000000000000000000000000000000000000815260040160405180910390fd5b60006003828154811061021457610214610aa2565b9060005260206000200154905061023981600090815260026020526040902054151590565b61026f576040517fa4a00ac000000000000000000000000000000000000000000000000000000000815260040160405180910390fd5b6001546040517f6352211e00000000000000000000000000000000000000000000000000000000815260048101839052339173ffffffffffffffffffffffffffffffffffffffff1690636352211e90602401602060405180830381865afa1580156102de573d6000803e3d6000fd5b505050506040513d601f19601f820116820180604052508101906103029190610ad1565b73ffffffffffffffffffffffffffffffffffffffff161461034f576040517ffe09c7c100000000000000000000000000000000000000000000000000000000815260040160405180910390fd5b6103588261099d565b60405181907fe41dbb904a61ac874fd8e5e06b2940187c26198d4623b35ac9c17e3380a41ab890600090a25050565b806000036103c1576040517f8587962c00000000000000000000000000000000000000000000000000000000815260040160405180910390fd5b6001546040517f6352211e00000000000000000000000000000000000000000000000000000000815260048101849052339173ffffffffffffffffffffffffffffffffffffffff1690636352211e90602401602060405180830381865afa158015610430573d6000803e3d6000fd5b505050506040513d601f19601f820116820180604052508101906104549190610ad1565b73ffffffffffffffffffffffffffffffffffffffff16146104a1576040517ffe09c7c100000000000000000000000000000000000000000000000000000000815260040160405180910390fd5b6001546040517f081812fc00000000000000000000000000000000000000000000000000000000815260048101849052309173ffffffffffffffffffffffffffffffffffffffff169063081812fc90602401602060405180830381865afa158015610510573d6000803e3d6000fd5b505050506040513d601f19601f820116820180604052508101906105349190610ad1565b73ffffffffffffffffffffffffffffffffffffffff1614610581576040517f285c02fa00000000000000000000000000000000000000000000000000000000815260040160405180910390fd5b600082815260026020526040902054156105c7576040517f0ba1b06c00000000000000000000000000000000000000000000000000000000815260040160405180910390fd5b6000828152600260205260408082208390556003805460018101825592527fc2575a0e9e593c00f959f8c92f12db2869c3395a3b0502d05e2516446f71f85b90910183905551339083907fd9b13b7a400d0be3162deb8753aab49043593573ba6cd10369cd9a1ea5c0d214906106409085815260200190565b60405180910390a35050565b6003818154811061065c57600080fd5b600091825260209091200154905081565b60035481106106a8576040517f724b3f3600000000000000000000000000000000000000000000000000000000815260040160405180910390fd5b81600382815481106106bc576106bc610aa2565b9060005260206000200154146106fe576040517f724b3f3600000000000000000000000000000000000000000000000000000000815260040160405180910390fd5b600082815260026020526040902054610743576040517fa4a00ac000000000000000000000000000000000000000000000000000000000815260040160405180910390fd5b6001546040517f6352211e0000000000000000000000000000000000000000000000000000000081526004810184905260009173ffffffffffffffffffffffffffffffffffffffff1690636352211e90602401602060405180830381865afa1580156107b3573d6000803e3d6000fd5b505050506040513d601f19601f820116820180604052508101906107d79190610ad1565b60008481526002602052604090205490915033906107f48461099d565b6000546040517f23b872dd00000000000000000000000000000000000000000000000000000000815273ffffffffffffffffffffffffffffffffffffffff8481166004830152858116602483015260448201849052909116906323b872dd906064016020604051808303816000875af1158015610875573d6000803e3d6000fd5b505050506040513d601f19601f820116820180604052508101906108999190610b0e565b506001546040517f23b872dd00000000000000000000000000000000000000000000000000000000815273ffffffffffffffffffffffffffffffffffffffff8581166004830152848116602483015260448201889052909116906323b872dd90606401600060405180830381600087803b15801561091657600080fd5b505af115801561092a573d6000803e3d6000fd5b505050508173ffffffffffffffffffffffffffffffffffffffff168373ffffffffffffffffffffffffffffffffffffffff16867f73ee6083753970c82cf2d93ff7bb0432e00e0155c4096741ea134c74f67eb02b8460405161098e91815260200190565b60405180910390a45050505050565b6000600382815481106109b2576109b2610aa2565b90600052602060002001549050600360016003805490506109d39190610b30565b815481106109e3576109e3610aa2565b906000526020600020015460038381548110610a0157610a01610aa2565b6000918252602090912001556003805480610a1e57610a1e610b70565b6000828152602080822083017fffffffffffffffffffffffffffffffffffffffffffffffffffffffffffffffff9081018390559092019092559181526002909152604081205550565b600060208284031215610a7957600080fd5b5035919050565b60008060408385031215610a9357600080fd5b50508035926020909101359150565b7f4e487b7100000000000000000000000000000000000000000000000000000000600052603260045260246000fd5b600060208284031215610ae357600080fd5b815173ffffffffffffffffffffffffffffffffffffffff81168114610b0757600080fd5b9392505050565b600060208284031215610b2057600080fd5b81518015158114610b0757600080fd5b81810381811115610b6a577f4e487b7100000000000000000000000000000000000000000000000000000000600052601160045260246000fd5b92915050565b7f4e487b7100000000000000000000000000000000000000000000000000000000600052603160045260246000fdfea26469706673582212207376d8cb6fe89272d85636145b86770d38df1841b1a8b51047276699b595a27364736f6c63430008120033",
  "linkReferences": {},
  "deployedLinkReferences": {}
}