{
  "_format": "hh-sol-artifact-1",
  "contractName": "MungStaker",
  "sourceName": "contracts/MungStaker.sol",
  "abi": [
    {
      "inputs": [
        {
          "internalType": "address",
          "name": "mungToken_",
          "type": "address"
        },
        {
          "internalType": "address",
          "name": "mungNFT_",
          "type": "address"
        }
      ],
      "stateMutability": "nonpayable",
      "type": "constructor"
    },
    {
      "inputs": [],
      "name": "MungStaker__LockUpAlreadyExists",
      "type": "error"
    },
    {
      "inputs": [],
      "name": "MungStaker__LockUpDoesNotExists",
      "type": "error"
    },
    {
      "inputs": [],
      "name": "MungStaker__LockUpHasNotMatured",
      "type": "error"
    },
    {
      "anonymous": false,
      "inputs": [
        {
          "indexed": true,
          "internalType": "address",
          "name": "user",
          "type": "address"
        },
        {
          "indexed": false,
          "internalType": "uint256",
          "name": "tokenId",
          "type": "uint256"
        }
      ],
      "name": "LockedUp",
      "type": "event"
    },
    {
      "anonymous": false,
      "inputs": [
        {
          "indexed": true,
          "internalType": "address",
          "name": "user",
          "type": "address"
        },
        {
          "indexed": false,
          "internalType": "uint256",
          "name": "tokenId",
          "type": "uint256"
        }
      ],
      "name": "Unlocked",
      "type": "event"
    },
    {
      "inputs": [],
      "name": "FARMING_AMOUNT",
      "outputs": [
        {
          "internalType": "uint256",
          "name": "",
          "type": "uint256"
        }
      ],
      "stateMutability": "view",
      "type": "function"
    },
    {
      "inputs": [],
      "name": "LOCK_UP_DURATION",
      "outputs": [
        {
          "internalType": "uint256",
          "name": "",
          "type": "uint256"
        }
      ],
      "stateMutability": "view",
      "type": "function"
    },
    {
      "inputs": [],
      "name": "activeLockUpCount",
      "outputs": [
        {
          "internalType": "uint256",
          "name": "",
          "type": "uint256"
        }
      ],
      "stateMutability": "view",
      "type": "function"
    },
    {
      "inputs": [
        {
          "internalType": "uint256",
          "name": "tokenId",
          "type": "uint256"
        }
      ],
      "name": "lockUp",
      "outputs": [],
      "stateMutability": "nonpayable",
      "type": "function"
    },
    {
      "inputs": [
        {
          "internalType": "uint256",
          "name": "tokenId",
          "type": "uint256"
        }
      ],
      "name": "lockUpExists",
      "outputs": [
        {
          "internalType": "bool",
          "name": "",
          "type": "bool"
        }
      ],
      "stateMutability": "view",
      "type": "function"
    },
    {
      "inputs": [],
      "name": "mungNFT",
      "outputs": [
        {
          "internalType": "contract IERC721",
          "name": "",
          "type": "address"
        }
      ],
      "stateMutability": "view",
      "type": "function"
    },
    {
      "inputs": [],
      "name": "mungToken",
      "outputs": [
        {
          "internalType": "contract IMungToken",
          "name": "",
          "type": "address"
        }
      ],
      "stateMutability": "view",
      "type": "function"
    },
    {
      "inputs": [
        {
          "internalType": "uint256",
          "name": "",
          "type": "uint256"
        }
      ],
      "name": "tokenLockUp",
      "outputs": [
        {
          "internalType": "uint40",
          "name": "lockedAt",
          "type": "uint40"
        },
        {
          "internalType": "address",
          "name": "user",
          "type": "address"
        }
      ],
      "stateMutability": "view",
      "type": "function"
    },
    {
      "inputs": [
        {
          "internalType": "uint256",
          "name": "tokenId",
          "type": "uint256"
        }
      ],
      "name": "unlock",
      "outputs": [],
      "stateMutability": "nonpayable",
      "type": "function"
    }
  ],
  "bytecode": "0x608060405234801561001057600080fd5b5060405161072a38038061072a83398101604081905261002f9161007c565b600080546001600160a01b039384166001600160a01b031991821617909155600180549290931691161790556100af565b80516001600160a01b038116811461007757600080fd5b919050565b6000806040838503121561008f57600080fd5b61009883610060565b91506100a660208401610060565b90509250929050565b61066c806100be6000396000f3fe608060405234801561001057600080fd5b50600436106100a35760003560e01c8063765b1048116100765780638e25a85e1161005b5780638e25a85e146101cb578063a14a47ac146101d4578063e58a44491461020d57600080fd5b8063765b1048146101665780637985a0af146101ab57600080fd5b806324bdc190146100a85780634c522744146100c45780636198e3391461013e5780637655a59014610153575b600080fd5b6100b160035481565b6040519081526020015b60405180910390f35b61010c6100d23660046105c2565b60026020526000908152604090205464ffffffffff81169065010000000000900473ffffffffffffffffffffffffffffffffffffffff1682565b6040805164ffffffffff909316835273ffffffffffffffffffffffffffffffffffffffff9091166020830152016100bb565b61015161014c3660046105c2565b61021d565b005b6101516101613660046105c2565b61045c565b6001546101869073ffffffffffffffffffffffffffffffffffffffff1681565b60405173ffffffffffffffffffffffffffffffffffffffff90911681526020016100bb565b6000546101869073ffffffffffffffffffffffffffffffffffffffff1681565b6100b161025881565b6101fd6101e23660046105c2565b60009081526002602052604090205464ffffffffff16151590565b60405190151581526020016100bb565b6100b168056bc75e2d6310000081565b60008181526002602052604081208054909164ffffffffff9091169003610270576040517f91d7efd400000000000000000000000000000000000000000000000000000000815260040160405180910390fd5b80544290610288906102589064ffffffffff1661060a565b106102bf576040517f193c7e8200000000000000000000000000000000000000000000000000000000815260040160405180910390fd5b80547fffffffffffffff0000000000000000000000000000000000000000000000000016815560038054600191906000906102fb908490610623565b90915550506001546040517f23b872dd0000000000000000000000000000000000000000000000000000000081523060048201523360248201526044810184905273ffffffffffffffffffffffffffffffffffffffff909116906323b872dd90606401600060405180830381600087803b15801561037857600080fd5b505af115801561038c573d6000803e3d6000fd5b50506000546040517f40c10f1900000000000000000000000000000000000000000000000000000000815233600482015268056bc75e2d63100000602482015273ffffffffffffffffffffffffffffffffffffffff90911692506340c10f199150604401600060405180830381600087803b15801561040a57600080fd5b505af115801561041e573d6000803e3d6000fd5b50506040518481523392507f0f0bc5b519ddefdd8e5f9e6423433aa2b869738de2ae34d58ebc796fc749fa0d91506020015b60405180910390a25050565b6000818152600260205260409020805464ffffffffff16156104aa576040517fb23f8ba700000000000000000000000000000000000000000000000000000000815260040160405180910390fd5b6001546040517f23b872dd0000000000000000000000000000000000000000000000000000000081523360048201523060248201526044810184905273ffffffffffffffffffffffffffffffffffffffff909116906323b872dd90606401600060405180830381600087803b15801561052257600080fd5b505af1158015610536573d6000803e3d6000fd5b505082546501000000000033027fffffffffffffff0000000000000000000000000000000000000000000000000090911664ffffffffff4216171783555050600380546001919060009061058b90849061060a565b909155505060405182815233907fdf72d37adc3f256068f06daa37fec845a1b3b4dadc14a62dd3e89252387be0ef90602001610450565b6000602082840312156105d457600080fd5b5035919050565b7f4e487b7100000000000000000000000000000000000000000000000000000000600052601160045260246000fd5b8082018082111561061d5761061d6105db565b92915050565b8181038181111561061d5761061d6105db56fea264697066735822122074e604cd95c20d37b45a30800e41b92cbc43b7e2c1b61becaee45368087f9f0764736f6c63430008120033",
  "linkReferences": {},
  "deployedLinkReferences": {}
}